{
  "_format": "hh-sol-artifact-1",
  "contractName": "StakingToken",
  "sourceName": "contracts/StakingToken.sol",
  "abi": [
    {
      "inputs": [
        {
          "internalType": "address",
          "name": "_owner",
          "type": "address"
        },
        {
          "internalType": "uint256",
          "name": "_supply",
          "type": "uint256"
        }
      ],
      "stateMutability": "nonpayable",
      "type": "constructor"
    },
    {
      "anonymous": false,
      "inputs": [
        {
          "indexed": true,
          "internalType": "address",
          "name": "owner",
          "type": "address"
        },
        {
          "indexed": true,
          "internalType": "address",
          "name": "spender",
          "type": "address"
        },
        {
          "indexed": false,
          "internalType": "uint256",
          "name": "value",
          "type": "uint256"
        }
      ],
      "name": "Approval",
      "type": "event"
    },
    {
      "anonymous": false,
      "inputs": [
        {
          "indexed": true,
          "internalType": "address",
          "name": "previousOwner",
          "type": "address"
        },
        {
          "indexed": true,
          "internalType": "address",
          "name": "newOwner",
          "type": "address"
        }
      ],
      "name": "OwnershipTransferred",
      "type": "event"
    },
    {
      "anonymous": false,
      "inputs": [
        {
          "indexed": true,
          "internalType": "address",
          "name": "from",
          "type": "address"
        },
        {
          "indexed": true,
          "internalType": "address",
          "name": "to",
          "type": "address"
        },
        {
          "indexed": false,
          "internalType": "uint256",
          "name": "value",
          "type": "uint256"
        }
      ],
      "name": "Transfer",
      "type": "event"
    },
    {
      "inputs": [
        {
          "internalType": "address",
          "name": "owner",
          "type": "address"
        },
        {
          "internalType": "address",
          "name": "spender",
          "type": "address"
        }
      ],
      "name": "allowance",
      "outputs": [
        {
          "internalType": "uint256",
          "name": "",
          "type": "uint256"
        }
      ],
      "stateMutability": "view",
      "type": "function"
    },
    {
      "inputs": [
        {
          "internalType": "address",
          "name": "spender",
          "type": "address"
        },
        {
          "internalType": "uint256",
          "name": "amount",
          "type": "uint256"
        }
      ],
      "name": "approve",
      "outputs": [
        {
          "internalType": "bool",
          "name": "",
          "type": "bool"
        }
      ],
      "stateMutability": "nonpayable",
      "type": "function"
    },
    {
      "inputs": [
        {
          "internalType": "address",
          "name": "account",
          "type": "address"
        }
      ],
      "name": "balanceOf",
      "outputs": [
        {
          "internalType": "uint256",
          "name": "",
          "type": "uint256"
        }
      ],
      "stateMutability": "view",
      "type": "function"
    },
    {
      "inputs": [
        {
          "internalType": "address",
          "name": "_stakeholder",
          "type": "address"
        }
      ],
      "name": "calculateReward",
      "outputs": [
        {
          "internalType": "uint256",
          "name": "",
          "type": "uint256"
        }
      ],
      "stateMutability": "view",
      "type": "function"
    },
    {
      "inputs": [
        {
          "internalType": "uint256",
          "name": "_stake",
          "type": "uint256"
        }
      ],
      "name": "createStake",
      "outputs": [],
      "stateMutability": "nonpayable",
      "type": "function"
    },
    {
      "inputs": [],
      "name": "decimals",
      "outputs": [
        {
          "internalType": "uint8",
          "name": "",
          "type": "uint8"
        }
      ],
      "stateMutability": "view",
      "type": "function"
    },
    {
      "inputs": [
        {
          "internalType": "address",
          "name": "spender",
          "type": "address"
        },
        {
          "internalType": "uint256",
          "name": "subtractedValue",
          "type": "uint256"
        }
      ],
      "name": "decreaseAllowance",
      "outputs": [
        {
          "internalType": "bool",
          "name": "",
          "type": "bool"
        }
      ],
      "stateMutability": "nonpayable",
      "type": "function"
    },
    {
      "inputs": [],
      "name": "distributeRewards",
      "outputs": [],
      "stateMutability": "nonpayable",
      "type": "function"
    },
    {
      "inputs": [],
      "name": "getSomeTokens",
      "outputs": [],
      "stateMutability": "nonpayable",
      "type": "function"
    },
    {
      "inputs": [
        {
          "internalType": "address",
          "name": "spender",
          "type": "address"
        },
        {
          "internalType": "uint256",
          "name": "addedValue",
          "type": "uint256"
        }
      ],
      "name": "increaseAllowance",
      "outputs": [
        {
          "internalType": "bool",
          "name": "",
          "type": "bool"
        }
      ],
      "stateMutability": "nonpayable",
      "type": "function"
    },
    {
      "inputs": [
        {
          "internalType": "address",
          "name": "_address",
          "type": "address"
        }
      ],
      "name": "isStakeholder",
      "outputs": [
        {
          "internalType": "bool",
          "name": "",
          "type": "bool"
        },
        {
          "internalType": "uint256",
          "name": "",
          "type": "uint256"
        }
      ],
      "stateMutability": "view",
      "type": "function"
    },
    {
      "inputs": [],
      "name": "name",
      "outputs": [
        {
          "internalType": "string",
          "name": "",
          "type": "string"
        }
      ],
      "stateMutability": "view",
      "type": "function"
    },
    {
      "inputs": [],
      "name": "owner",
      "outputs": [
        {
          "internalType": "address",
          "name": "",
          "type": "address"
        }
      ],
      "stateMutability": "view",
      "type": "function"
    },
    {
      "inputs": [
        {
          "internalType": "uint256",
          "name": "_stake",
          "type": "uint256"
        }
      ],
      "name": "removeStake",
      "outputs": [],
      "stateMutability": "nonpayable",
      "type": "function"
    },
    {
      "inputs": [],
      "name": "renounceOwnership",
      "outputs": [],
      "stateMutability": "nonpayable",
      "type": "function"
    },
    {
      "inputs": [
        {
          "internalType": "address",
          "name": "_stakeholder",
          "type": "address"
        }
      ],
      "name": "rewardOf",
      "outputs": [
        {
          "internalType": "uint256",
          "name": "",
          "type": "uint256"
        }
      ],
      "stateMutability": "view",
      "type": "function"
    },
    {
      "inputs": [
        {
          "internalType": "address",
          "name": "_stakeholder",
          "type": "address"
        }
      ],
      "name": "stakeOf",
      "outputs": [
        {
          "internalType": "uint256",
          "name": "",
          "type": "uint256"
        }
      ],
      "stateMutability": "view",
      "type": "function"
    },
    {
      "inputs": [],
      "name": "symbol",
      "outputs": [
        {
          "internalType": "string",
          "name": "",
          "type": "string"
        }
      ],
      "stateMutability": "view",
      "type": "function"
    },
    {
      "inputs": [],
      "name": "totalRewards",
      "outputs": [
        {
          "internalType": "uint256",
          "name": "",
          "type": "uint256"
        }
      ],
      "stateMutability": "view",
      "type": "function"
    },
    {
      "inputs": [],
      "name": "totalStakes",
      "outputs": [
        {
          "internalType": "uint256",
          "name": "",
          "type": "uint256"
        }
      ],
      "stateMutability": "view",
      "type": "function"
    },
    {
      "inputs": [],
      "name": "totalSupply",
      "outputs": [
        {
          "internalType": "uint256",
          "name": "",
          "type": "uint256"
        }
      ],
      "stateMutability": "view",
      "type": "function"
    },
    {
      "inputs": [
        {
          "internalType": "address",
          "name": "recipient",
          "type": "address"
        },
        {
          "internalType": "uint256",
          "name": "amount",
          "type": "uint256"
        }
      ],
      "name": "transfer",
      "outputs": [
        {
          "internalType": "bool",
          "name": "",
          "type": "bool"
        }
      ],
      "stateMutability": "nonpayable",
      "type": "function"
    },
    {
      "inputs": [
        {
          "internalType": "address",
          "name": "sender",
          "type": "address"
        },
        {
          "internalType": "address",
          "name": "recipient",
          "type": "address"
        },
        {
          "internalType": "uint256",
          "name": "amount",
          "type": "uint256"
        }
      ],
      "name": "transferFrom",
      "outputs": [
        {
          "internalType": "bool",
          "name": "",
          "type": "bool"
        }
      ],
      "stateMutability": "nonpayable",
      "type": "function"
    },
    {
      "inputs": [
        {
          "internalType": "address",
          "name": "newOwner",
          "type": "address"
        }
      ],
      "name": "transferOwnership",
      "outputs": [],
      "stateMutability": "nonpayable",
      "type": "function"
    },
    {
      "inputs": [],
      "name": "withdrawReward",
      "outputs": [],
      "stateMutability": "nonpayable",
      "type": "function"
    }
  ],
  "bytecode": "0x60806040523480156200001157600080fd5b5060405162002f0b38038062002f0b833981810160405281019062000037919062000440565b6040518060400160405280600a81526020017f7a65726f5862726f636b000000000000000000000000000000000000000000008152506040518060400160405280600581526020017f42524f434b0000000000000000000000000000000000000000000000000000008152508160039080519060200190620000bb92919062000362565b508060049080519060200190620000d492919062000362565b505050620000f7620000eb6200011160201b60201c565b6200011960201b60201c565b620001098282620001df60201b60201c565b5050620006a0565b600033905090565b6000600560009054906101000a900473ffffffffffffffffffffffffffffffffffffffff16905081600560006101000a81548173ffffffffffffffffffffffffffffffffffffffff021916908373ffffffffffffffffffffffffffffffffffffffff1602179055508173ffffffffffffffffffffffffffffffffffffffff168173ffffffffffffffffffffffffffffffffffffffff167f8be0079c531659141344cd1fd0a4f28419497f9722a3daafe3b4186f6b6457e060405160405180910390a35050565b600073ffffffffffffffffffffffffffffffffffffffff168273ffffffffffffffffffffffffffffffffffffffff16141562000252576040517f08c379a00000000000000000000000000000000000000000000000000000000081526004016200024990620004bf565b60405180910390fd5b62000266600083836200035860201b60201c565b80600260008282546200027a91906200050f565b92505081905550806000808473ffffffffffffffffffffffffffffffffffffffff1673ffffffffffffffffffffffffffffffffffffffff1681526020019081526020016000206000828254620002d191906200050f565b925050819055508173ffffffffffffffffffffffffffffffffffffffff16600073ffffffffffffffffffffffffffffffffffffffff167fddf252ad1be2c89b69c2b068fc378daa952ba7f163c4a11628f55a4df523b3ef83604051620003389190620004e1565b60405180910390a362000354600083836200035d60201b60201c565b5050565b505050565b505050565b8280546200037090620005aa565b90600052602060002090601f016020900481019282620003945760008555620003e0565b82601f10620003af57805160ff1916838001178555620003e0565b82800160010185558215620003e0579182015b82811115620003df578251825591602001919060010190620003c2565b5b509050620003ef9190620003f3565b5090565b5b808211156200040e576000816000905550600101620003f4565b5090565b60008151905062000423816200066c565b92915050565b6000815190506200043a8162000686565b92915050565b600080604083850312156200045a57620004596200063e565b5b60006200046a8582860162000412565b92505060206200047d8582860162000429565b9150509250929050565b600062000496601f83620004fe565b9150620004a38262000643565b602082019050919050565b620004b981620005a0565b82525050565b60006020820190508181036000830152620004da8162000487565b9050919050565b6000602082019050620004f86000830184620004ae565b92915050565b600082825260208201905092915050565b60006200051c82620005a0565b91506200052983620005a0565b9250827fffffffffffffffffffffffffffffffffffffffffffffffffffffffffffffffff03821115620005615762000560620005e0565b5b828201905092915050565b6000620005798262000580565b9050919050565b600073ffffffffffffffffffffffffffffffffffffffff82169050919050565b6000819050919050565b60006002820490506001821680620005c357607f821691505b60208210811415620005da57620005d96200060f565b5b50919050565b7f4e487b7100000000000000000000000000000000000000000000000000000000600052601160045260246000fd5b7f4e487b7100000000000000000000000000000000000000000000000000000000600052602260045260246000fd5b600080fd5b7f45524332303a206d696e7420746f20746865207a65726f206164647265737300600082015250565b62000677816200056c565b81146200068357600080fd5b50565b6200069181620005a0565b81146200069d57600080fd5b50565b61285b80620006b06000396000f3fe608060405234801561001057600080fd5b50600436106101735760003560e01c806370a08231116100de578063a9059cbb11610097578063d82e396211610071578063d82e39621461042a578063dd62ed3e1461045a578063ef037b901461048a578063f2fde38b146104bb57610173565b8063a9059cbb146103d2578063bf9befb114610402578063c885bc581461042057610173565b806370a0823114610310578063715018a6146103405780638da5cb5b1461034a578063939624ab1461036857806395d89b4114610384578063a457c2d7146103a257610173565b806323b872dd1161013057806323b872dd1461024e578063313ce5671461027e578063395093511461029c5780633b45c6e5146102cc57806342623360146102d65780636f4a2cd01461030657610173565b806306fdde0314610178578063095ea7b3146101965780630e15561a146101c657806318160ddd146101e45780631bf6ddae146102025780631d62ebd91461021e575b600080fd5b6101806104d7565b60405161018d9190612025565b60405180910390f35b6101b060048036038101906101ab9190611d40565b610569565b6040516101bd9190611fe1565b60405180910390f35b6101ce610587565b6040516101db91906121c7565b60405180910390f35b6101ec610645565b6040516101f991906121c7565b60405180910390f35b61021c60048036038101906102179190611d80565b61064f565b005b61023860048036038101906102339190611c80565b61073c565b60405161024591906121c7565b60405180910390f35b61026860048036038101906102639190611ced565b610785565b6040516102759190611fe1565b60405180910390f35b61028661087d565b60405161029391906121e2565b60405180910390f35b6102b660048036038101906102b19190611d40565b610886565b6040516102c39190611fe1565b60405180910390f35b6102d4610932565b005b6102f060048036038101906102eb9190611c80565b610947565b6040516102fd91906121c7565b60405180910390f35b61030e610990565b005b61032a60048036038101906103259190611c80565b610b13565b60405161033791906121c7565b60405180910390f35b610348610b5b565b005b610352610be3565b60405161035f9190611fc6565b60405180910390f35b610382600480360381019061037d9190611d80565b610c0d565b005b61038c610cfa565b6040516103999190612025565b60405180910390f35b6103bc60048036038101906103b79190611d40565b610d8c565b6040516103c99190611fe1565b60405180910390f35b6103ec60048036038101906103e79190611d40565b610e77565b6040516103f99190611fe1565b60405180910390f35b61040a610e95565b60405161041791906121c7565b60405180910390f35b610428610f53565b005b610444600480360381019061043f9190611c80565b610fe9565b60405161045191906121c7565b60405180910390f35b610474600480360381019061046f9190611cad565b61103e565b60405161048191906121c7565b60405180910390f35b6104a4600480360381019061049f9190611c80565b6110c5565b6040516104b2929190611ffc565b60405180910390f35b6104d560048036038101906104d09190611c80565b611179565b005b6060600380546104e69061235c565b80601f01602080910402602001604051908101604052809291908181526020018280546105129061235c565b801561055f5780601f106105345761010080835404028352916020019161055f565b820191906000526020600020905b81548152906001019060200180831161054257829003601f168201915b5050505050905090565b600061057d610576611271565b8484611279565b6001905092915050565b6000806000905060005b60068054905081101561063d5760086000600683815481106105b6576105b561244a565b5b9060005260206000200160009054906101000a900473ffffffffffffffffffffffffffffffffffffffff1673ffffffffffffffffffffffffffffffffffffffff1673ffffffffffffffffffffffffffffffffffffffff16815260200190815260200160002054826106279190612219565b91506001816106369190612219565b9050610591565b508091505090565b6000600254905090565b6106593382611444565b6000600760003373ffffffffffffffffffffffffffffffffffffffff1673ffffffffffffffffffffffffffffffffffffffff1681526020019081526020016000205414156106ab576106aa3361161b565b5b80600760003373ffffffffffffffffffffffffffffffffffffffff1673ffffffffffffffffffffffffffffffffffffffff168152602001908152602001600020546106f69190612219565b600760003373ffffffffffffffffffffffffffffffffffffffff1673ffffffffffffffffffffffffffffffffffffffff1681526020019081526020016000208190555050565b6000600860008373ffffffffffffffffffffffffffffffffffffffff1673ffffffffffffffffffffffffffffffffffffffff168152602001908152602001600020549050919050565b6000610792848484611696565b6000600160008673ffffffffffffffffffffffffffffffffffffffff1673ffffffffffffffffffffffffffffffffffffffff16815260200190815260200160002060006107dd611271565b73ffffffffffffffffffffffffffffffffffffffff1673ffffffffffffffffffffffffffffffffffffffff1681526020019081526020016000205490508281101561085d576040517f08c379a0000000000000000000000000000000000000000000000000000000008152600401610854906120e7565b60405180910390fd5b61087185610869611271565b858403611279565b60019150509392505050565b60006012905090565b6000610928610893611271565b8484600160006108a1611271565b73ffffffffffffffffffffffffffffffffffffffff1673ffffffffffffffffffffffffffffffffffffffff16815260200190815260200160002060008873ffffffffffffffffffffffffffffffffffffffff1673ffffffffffffffffffffffffffffffffffffffff168152602001908152602001600020546109239190612219565b611279565b6001905092915050565b61094533683635c9adc5dea00000611917565b565b6000600760008373ffffffffffffffffffffffffffffffffffffffff1673ffffffffffffffffffffffffffffffffffffffff168152602001908152602001600020549050919050565b610998611271565b73ffffffffffffffffffffffffffffffffffffffff166109b6610be3565b73ffffffffffffffffffffffffffffffffffffffff1614610a0c576040517f08c379a0000000000000000000000000000000000000000000000000000000008152600401610a0390612107565b60405180910390fd5b60005b600680549050811015610b1057600060068281548110610a3257610a3161244a565b5b9060005260206000200160009054906101000a900473ffffffffffffffffffffffffffffffffffffffff1690506000610a6a82610fe9565b905080600860008473ffffffffffffffffffffffffffffffffffffffff1673ffffffffffffffffffffffffffffffffffffffff16815260200190815260200160002054610ab79190612219565b600860008473ffffffffffffffffffffffffffffffffffffffff1673ffffffffffffffffffffffffffffffffffffffff168152602001908152602001600020819055505050600181610b099190612219565b9050610a0f565b50565b60008060008373ffffffffffffffffffffffffffffffffffffffff1673ffffffffffffffffffffffffffffffffffffffff168152602001908152602001600020549050919050565b610b63611271565b73ffffffffffffffffffffffffffffffffffffffff16610b81610be3565b73ffffffffffffffffffffffffffffffffffffffff1614610bd7576040517f08c379a0000000000000000000000000000000000000000000000000000000008152600401610bce90612107565b60405180910390fd5b610be16000611a77565b565b6000600560009054906101000a900473ffffffffffffffffffffffffffffffffffffffff16905090565b80600760003373ffffffffffffffffffffffffffffffffffffffff1673ffffffffffffffffffffffffffffffffffffffff16815260200190815260200160002054610c5891906122a0565b600760003373ffffffffffffffffffffffffffffffffffffffff1673ffffffffffffffffffffffffffffffffffffffff168152602001908152602001600020819055506000600760003373ffffffffffffffffffffffffffffffffffffffff1673ffffffffffffffffffffffffffffffffffffffff168152602001908152602001600020541415610ced57610cec33611b3d565b5b610cf73382611917565b50565b606060048054610d099061235c565b80601f0160208091040260200160405190810160405280929190818152602001828054610d359061235c565b8015610d825780601f10610d5757610100808354040283529160200191610d82565b820191906000526020600020905b815481529060010190602001808311610d6557829003601f168201915b5050505050905090565b60008060016000610d9b611271565b73ffffffffffffffffffffffffffffffffffffffff1673ffffffffffffffffffffffffffffffffffffffff16815260200190815260200160002060008573ffffffffffffffffffffffffffffffffffffffff1673ffffffffffffffffffffffffffffffffffffffff16815260200190815260200160002054905082811015610e58576040517f08c379a0000000000000000000000000000000000000000000000000000000008152600401610e4f90612187565b60405180910390fd5b610e6c610e63611271565b85858403611279565b600191505092915050565b6000610e8b610e84611271565b8484611696565b6001905092915050565b6000806000905060005b600680549050811015610f4b576007600060068381548110610ec457610ec361244a565b5b9060005260206000200160009054906101000a900473ffffffffffffffffffffffffffffffffffffffff1673ffffffffffffffffffffffffffffffffffffffff1673ffffffffffffffffffffffffffffffffffffffff1681526020019081526020016000205482610f359190612219565b9150600181610f449190612219565b9050610e9f565b508091505090565b6000600860003373ffffffffffffffffffffffffffffffffffffffff1673ffffffffffffffffffffffffffffffffffffffff1681526020019081526020016000205490506000600860003373ffffffffffffffffffffffffffffffffffffffff1673ffffffffffffffffffffffffffffffffffffffff16815260200190815260200160002081905550610fe63382611917565b50565b60006064600760008473ffffffffffffffffffffffffffffffffffffffff1673ffffffffffffffffffffffffffffffffffffffff16815260200190815260200160002054611037919061226f565b9050919050565b6000600160008473ffffffffffffffffffffffffffffffffffffffff1673ffffffffffffffffffffffffffffffffffffffff16815260200190815260200160002060008373ffffffffffffffffffffffffffffffffffffffff1673ffffffffffffffffffffffffffffffffffffffff16815260200190815260200160002054905092915050565b60008060005b60068054905081101561116b57600681815481106110ec576110eb61244a565b5b9060005260206000200160009054906101000a900473ffffffffffffffffffffffffffffffffffffffff1673ffffffffffffffffffffffffffffffffffffffff168473ffffffffffffffffffffffffffffffffffffffff161415611157576001819250925050611174565b6001816111649190612219565b90506110cb565b50600080915091505b915091565b611181611271565b73ffffffffffffffffffffffffffffffffffffffff1661119f610be3565b73ffffffffffffffffffffffffffffffffffffffff16146111f5576040517f08c379a00000000000000000000000000000000000000000000000000000000081526004016111ec90612107565b60405180910390fd5b600073ffffffffffffffffffffffffffffffffffffffff168173ffffffffffffffffffffffffffffffffffffffff161415611265576040517f08c379a000000000000000000000000000000000000000000000000000000000815260040161125c90612087565b60405180910390fd5b61126e81611a77565b50565b600033905090565b600073ffffffffffffffffffffffffffffffffffffffff168373ffffffffffffffffffffffffffffffffffffffff1614156112e9576040517f08c379a00000000000000000000000000000000000000000000000000000000081526004016112e090612167565b60405180910390fd5b600073ffffffffffffffffffffffffffffffffffffffff168273ffffffffffffffffffffffffffffffffffffffff161415611359576040517f08c379a0000000000000000000000000000000000000000000000000000000008152600401611350906120a7565b60405180910390fd5b80600160008573ffffffffffffffffffffffffffffffffffffffff1673ffffffffffffffffffffffffffffffffffffffff16815260200190815260200160002060008473ffffffffffffffffffffffffffffffffffffffff1673ffffffffffffffffffffffffffffffffffffffff168152602001908152602001600020819055508173ffffffffffffffffffffffffffffffffffffffff168373ffffffffffffffffffffffffffffffffffffffff167f8c5be1e5ebec7d5bd14f71427d1e84f3dd0314c0f7b2291e5b200ac8c7c3b9258360405161143791906121c7565b60405180910390a3505050565b600073ffffffffffffffffffffffffffffffffffffffff168273ffffffffffffffffffffffffffffffffffffffff1614156114b4576040517f08c379a00000000000000000000000000000000000000000000000000000000081526004016114ab90612127565b60405180910390fd5b6114c082600083611c4c565b60008060008473ffffffffffffffffffffffffffffffffffffffff1673ffffffffffffffffffffffffffffffffffffffff16815260200190815260200160002054905081811015611546576040517f08c379a000000000000000000000000000000000000000000000000000000000815260040161153d90612067565b60405180910390fd5b8181036000808573ffffffffffffffffffffffffffffffffffffffff1673ffffffffffffffffffffffffffffffffffffffff16815260200190815260200160002081905550816002600082825461159d91906122a0565b92505081905550600073ffffffffffffffffffffffffffffffffffffffff168373ffffffffffffffffffffffffffffffffffffffff167fddf252ad1be2c89b69c2b068fc378daa952ba7f163c4a11628f55a4df523b3ef8460405161160291906121c7565b60405180910390a361161683600084611c51565b505050565b6000611626826110c5565b50905080611692576006829080600181540180825580915050600190039060005260206000200160009091909190916101000a81548173ffffffffffffffffffffffffffffffffffffffff021916908373ffffffffffffffffffffffffffffffffffffffff1602179055505b5050565b600073ffffffffffffffffffffffffffffffffffffffff168373ffffffffffffffffffffffffffffffffffffffff161415611706576040517f08c379a00000000000000000000000000000000000000000000000000000000081526004016116fd90612147565b60405180910390fd5b600073ffffffffffffffffffffffffffffffffffffffff168273ffffffffffffffffffffffffffffffffffffffff161415611776576040517f08c379a000000000000000000000000000000000000000000000000000000000815260040161176d90612047565b60405180910390fd5b611781838383611c4c565b60008060008573ffffffffffffffffffffffffffffffffffffffff1673ffffffffffffffffffffffffffffffffffffffff16815260200190815260200160002054905081811015611807576040517f08c379a00000000000000000000000000000000000000000000000000000000081526004016117fe906120c7565b60405180910390fd5b8181036000808673ffffffffffffffffffffffffffffffffffffffff1673ffffffffffffffffffffffffffffffffffffffff16815260200190815260200160002081905550816000808573ffffffffffffffffffffffffffffffffffffffff1673ffffffffffffffffffffffffffffffffffffffff168152602001908152602001600020600082825461189a9190612219565b925050819055508273ffffffffffffffffffffffffffffffffffffffff168473ffffffffffffffffffffffffffffffffffffffff167fddf252ad1be2c89b69c2b068fc378daa952ba7f163c4a11628f55a4df523b3ef846040516118fe91906121c7565b60405180910390a3611911848484611c51565b50505050565b600073ffffffffffffffffffffffffffffffffffffffff168273ffffffffffffffffffffffffffffffffffffffff161415611987576040517f08c379a000000000000000000000000000000000000000000000000000000000815260040161197e906121a7565b60405180910390fd5b61199360008383611c4c565b80600260008282546119a59190612219565b92505081905550806000808473ffffffffffffffffffffffffffffffffffffffff1673ffffffffffffffffffffffffffffffffffffffff16815260200190815260200160002060008282546119fa9190612219565b925050819055508173ffffffffffffffffffffffffffffffffffffffff16600073ffffffffffffffffffffffffffffffffffffffff167fddf252ad1be2c89b69c2b068fc378daa952ba7f163c4a11628f55a4df523b3ef83604051611a5f91906121c7565b60405180910390a3611a7360008383611c51565b5050565b6000600560009054906101000a900473ffffffffffffffffffffffffffffffffffffffff16905081600560006101000a81548173ffffffffffffffffffffffffffffffffffffffff021916908373ffffffffffffffffffffffffffffffffffffffff1602179055508173ffffffffffffffffffffffffffffffffffffffff168173ffffffffffffffffffffffffffffffffffffffff167f8be0079c531659141344cd1fd0a4f28419497f9722a3daafe3b4186f6b6457e060405160405180910390a35050565b600080611b49836110c5565b915091508115611c475760066001600680549050611b6791906122a0565b81548110611b7857611b7761244a565b5b9060005260206000200160009054906101000a900473ffffffffffffffffffffffffffffffffffffffff1660068281548110611bb757611bb661244a565b5b9060005260206000200160006101000a81548173ffffffffffffffffffffffffffffffffffffffff021916908373ffffffffffffffffffffffffffffffffffffffff1602179055506006805480611c1157611c1061241b565b5b6001900381819060005260206000200160006101000a81549073ffffffffffffffffffffffffffffffffffffffff021916905590555b505050565b505050565b505050565b600081359050611c65816127f7565b92915050565b600081359050611c7a8161280e565b92915050565b600060208284031215611c9657611c95612479565b5b6000611ca484828501611c56565b91505092915050565b60008060408385031215611cc457611cc3612479565b5b6000611cd285828601611c56565b9250506020611ce385828601611c56565b9150509250929050565b600080600060608486031215611d0657611d05612479565b5b6000611d1486828701611c56565b9350506020611d2586828701611c56565b9250506040611d3686828701611c6b565b9150509250925092565b60008060408385031215611d5757611d56612479565b5b6000611d6585828601611c56565b9250506020611d7685828601611c6b565b9150509250929050565b600060208284031215611d9657611d95612479565b5b6000611da484828501611c6b565b91505092915050565b611db6816122d4565b82525050565b611dc5816122e6565b82525050565b6000611dd6826121fd565b611de08185612208565b9350611df0818560208601612329565b611df98161247e565b840191505092915050565b6000611e11602383612208565b9150611e1c8261248f565b604082019050919050565b6000611e34602283612208565b9150611e3f826124de565b604082019050919050565b6000611e57602683612208565b9150611e628261252d565b604082019050919050565b6000611e7a602283612208565b9150611e858261257c565b604082019050919050565b6000611e9d602683612208565b9150611ea8826125cb565b604082019050919050565b6000611ec0602883612208565b9150611ecb8261261a565b604082019050919050565b6000611ee3602083612208565b9150611eee82612669565b602082019050919050565b6000611f06602183612208565b9150611f1182612692565b604082019050919050565b6000611f29602583612208565b9150611f34826126e1565b604082019050919050565b6000611f4c602483612208565b9150611f5782612730565b604082019050919050565b6000611f6f602583612208565b9150611f7a8261277f565b604082019050919050565b6000611f92601f83612208565b9150611f9d826127ce565b602082019050919050565b611fb181612312565b82525050565b611fc08161231c565b82525050565b6000602082019050611fdb6000830184611dad565b92915050565b6000602082019050611ff66000830184611dbc565b92915050565b60006040820190506120116000830185611dbc565b61201e6020830184611fa8565b9392505050565b6000602082019050818103600083015261203f8184611dcb565b905092915050565b6000602082019050818103600083015261206081611e04565b9050919050565b6000602082019050818103600083015261208081611e27565b9050919050565b600060208201905081810360008301526120a081611e4a565b9050919050565b600060208201905081810360008301526120c081611e6d565b9050919050565b600060208201905081810360008301526120e081611e90565b9050919050565b6000602082019050818103600083015261210081611eb3565b9050919050565b6000602082019050818103600083015261212081611ed6565b9050919050565b6000602082019050818103600083015261214081611ef9565b9050919050565b6000602082019050818103600083015261216081611f1c565b9050919050565b6000602082019050818103600083015261218081611f3f565b9050919050565b600060208201905081810360008301526121a081611f62565b9050919050565b600060208201905081810360008301526121c081611f85565b9050919050565b60006020820190506121dc6000830184611fa8565b92915050565b60006020820190506121f76000830184611fb7565b92915050565b600081519050919050565b600082825260208201905092915050565b600061222482612312565b915061222f83612312565b9250827fffffffffffffffffffffffffffffffffffffffffffffffffffffffffffffffff038211156122645761226361238e565b5b828201905092915050565b600061227a82612312565b915061228583612312565b925082612295576122946123bd565b5b828204905092915050565b60006122ab82612312565b91506122b683612312565b9250828210156122c9576122c861238e565b5b828203905092915050565b60006122df826122f2565b9050919050565b60008115159050919050565b600073ffffffffffffffffffffffffffffffffffffffff82169050919050565b6000819050919050565b600060ff82169050919050565b60005b8381101561234757808201518184015260208101905061232c565b83811115612356576000848401525b50505050565b6000600282049050600182168061237457607f821691505b60208210811415612388576123876123ec565b5b50919050565b7f4e487b7100000000000000000000000000000000000000000000000000000000600052601160045260246000fd5b7f4e487b7100000000000000000000000000000000000000000000000000000000600052601260045260246000fd5b7f4e487b7100000000000000000000000000000000000000000000000000000000600052602260045260246000fd5b7f4e487b7100000000000000000000000000000000000000000000000000000000600052603160045260246000fd5b7f4e487b7100000000000000000000000000000000000000000000000000000000600052603260045260246000fd5b600080fd5b6000601f19601f8301169050919050565b7f45524332303a207472616e7366657220746f20746865207a65726f206164647260008201527f6573730000000000000000000000000000000000000000000000000000000000602082015250565b7f45524332303a206275726e20616d6f756e7420657863656564732062616c616e60008201527f6365000000000000000000000000000000000000000000000000000000000000602082015250565b7f4f776e61626c653a206e6577206f776e657220697320746865207a65726f206160008201527f6464726573730000000000000000000000000000000000000000000000000000602082015250565b7f45524332303a20617070726f766520746f20746865207a65726f20616464726560008201527f7373000000000000000000000000000000000000000000000000000000000000602082015250565b7f45524332303a207472616e7366657220616d6f756e742065786365656473206260008201527f616c616e63650000000000000000000000000000000000000000000000000000602082015250565b7f45524332303a207472616e7366657220616d6f756e742065786365656473206160008201527f6c6c6f77616e6365000000000000000000000000000000000000000000000000602082015250565b7f4f776e61626c653a2063616c6c6572206973206e6f7420746865206f776e6572600082015250565b7f45524332303a206275726e2066726f6d20746865207a65726f2061646472657360008201527f7300000000000000000000000000000000000000000000000000000000000000602082015250565b7f45524332303a207472616e736665722066726f6d20746865207a65726f20616460008201527f6472657373000000000000000000000000000000000000000000000000000000602082015250565b7f45524332303a20617070726f76652066726f6d20746865207a65726f2061646460008201527f7265737300000000000000000000000000000000000000000000000000000000602082015250565b7f45524332303a2064656372656173656420616c6c6f77616e63652062656c6f7760008201527f207a65726f000000000000000000000000000000000000000000000000000000602082015250565b7f45524332303a206d696e7420746f20746865207a65726f206164647265737300600082015250565b612800816122d4565b811461280b57600080fd5b50565b61281781612312565b811461282257600080fd5b5056fea264697066735822122081a762b2b9babd3db015ae50e5b7571160c7422b2d538d04e360aa11d887ae8b64736f6c63430008070033",
  "linkReferences": {},
  "deployedLinkReferences": {}
}