{
  "_format": "hh-sol-artifact-1",
  "contractName": "StakingToken",
  "sourceName": "contracts/StakingToken.sol",
  "abi": [
    {
      "inputs": [
        {
          "internalType": "address",
          "name": "_owner",
          "type": "address"
        },
        {
          "internalType": "uint256",
          "name": "_supply",
          "type": "uint256"
        }
      ],
      "stateMutability": "nonpayable",
      "type": "constructor"
    },
    {
      "anonymous": false,
      "inputs": [
        {
          "indexed": true,
          "internalType": "address",
          "name": "owner",
          "type": "address"
        },
        {
          "indexed": true,
          "internalType": "address",
          "name": "spender",
          "type": "address"
        },
        {
          "indexed": false,
          "internalType": "uint256",
          "name": "value",
          "type": "uint256"
        }
      ],
      "name": "Approval",
      "type": "event"
    },
    {
      "anonymous": false,
      "inputs": [
        {
          "indexed": true,
          "internalType": "address",
          "name": "previousOwner",
          "type": "address"
        },
        {
          "indexed": true,
          "internalType": "address",
          "name": "newOwner",
          "type": "address"
        }
      ],
      "name": "OwnershipTransferred",
      "type": "event"
    },
    {
      "anonymous": false,
      "inputs": [
        {
          "indexed": true,
          "internalType": "address",
          "name": "from",
          "type": "address"
        },
        {
          "indexed": true,
          "internalType": "address",
          "name": "to",
          "type": "address"
        },
        {
          "indexed": false,
          "internalType": "uint256",
          "name": "value",
          "type": "uint256"
        }
      ],
      "name": "Transfer",
      "type": "event"
    },
    {
      "inputs": [
        {
          "internalType": "address",
          "name": "_stakeholder",
          "type": "address"
        }
      ],
      "name": "addStakeholder",
      "outputs": [],
      "stateMutability": "nonpayable",
      "type": "function"
    },
    {
      "inputs": [
        {
          "internalType": "address",
          "name": "owner",
          "type": "address"
        },
        {
          "internalType": "address",
          "name": "spender",
          "type": "address"
        }
      ],
      "name": "allowance",
      "outputs": [
        {
          "internalType": "uint256",
          "name": "",
          "type": "uint256"
        }
      ],
      "stateMutability": "view",
      "type": "function"
    },
    {
      "inputs": [
        {
          "internalType": "address",
          "name": "spender",
          "type": "address"
        },
        {
          "internalType": "uint256",
          "name": "amount",
          "type": "uint256"
        }
      ],
      "name": "approve",
      "outputs": [
        {
          "internalType": "bool",
          "name": "",
          "type": "bool"
        }
      ],
      "stateMutability": "nonpayable",
      "type": "function"
    },
    {
      "inputs": [
        {
          "internalType": "address",
          "name": "account",
          "type": "address"
        }
      ],
      "name": "balanceOf",
      "outputs": [
        {
          "internalType": "uint256",
          "name": "",
          "type": "uint256"
        }
      ],
      "stateMutability": "view",
      "type": "function"
    },
    {
      "inputs": [
        {
          "internalType": "address",
          "name": "_stakeholder",
          "type": "address"
        }
      ],
      "name": "calculateReward",
      "outputs": [
        {
          "internalType": "uint256",
          "name": "",
          "type": "uint256"
        }
      ],
      "stateMutability": "view",
      "type": "function"
    },
    {
      "inputs": [
        {
          "internalType": "uint256",
          "name": "_stake",
          "type": "uint256"
        }
      ],
      "name": "createStake",
      "outputs": [],
      "stateMutability": "nonpayable",
      "type": "function"
    },
    {
      "inputs": [],
      "name": "decimals",
      "outputs": [
        {
          "internalType": "uint8",
          "name": "",
          "type": "uint8"
        }
      ],
      "stateMutability": "view",
      "type": "function"
    },
    {
      "inputs": [
        {
          "internalType": "address",
          "name": "spender",
          "type": "address"
        },
        {
          "internalType": "uint256",
          "name": "subtractedValue",
          "type": "uint256"
        }
      ],
      "name": "decreaseAllowance",
      "outputs": [
        {
          "internalType": "bool",
          "name": "",
          "type": "bool"
        }
      ],
      "stateMutability": "nonpayable",
      "type": "function"
    },
    {
      "inputs": [],
      "name": "distributeRewards",
      "outputs": [],
      "stateMutability": "nonpayable",
      "type": "function"
    },
    {
      "inputs": [
        {
          "internalType": "address",
          "name": "spender",
          "type": "address"
        },
        {
          "internalType": "uint256",
          "name": "addedValue",
          "type": "uint256"
        }
      ],
      "name": "increaseAllowance",
      "outputs": [
        {
          "internalType": "bool",
          "name": "",
          "type": "bool"
        }
      ],
      "stateMutability": "nonpayable",
      "type": "function"
    },
    {
      "inputs": [
        {
          "internalType": "address",
          "name": "_address",
          "type": "address"
        }
      ],
      "name": "isStakeholder",
      "outputs": [
        {
          "internalType": "bool",
          "name": "",
          "type": "bool"
        },
        {
          "internalType": "uint256",
          "name": "",
          "type": "uint256"
        }
      ],
      "stateMutability": "view",
      "type": "function"
    },
    {
      "inputs": [],
      "name": "name",
      "outputs": [
        {
          "internalType": "string",
          "name": "",
          "type": "string"
        }
      ],
      "stateMutability": "view",
      "type": "function"
    },
    {
      "inputs": [],
      "name": "owner",
      "outputs": [
        {
          "internalType": "address",
          "name": "",
          "type": "address"
        }
      ],
      "stateMutability": "view",
      "type": "function"
    },
    {
      "inputs": [
        {
          "internalType": "uint256",
          "name": "_stake",
          "type": "uint256"
        }
      ],
      "name": "removeStake",
      "outputs": [],
      "stateMutability": "nonpayable",
      "type": "function"
    },
    {
      "inputs": [
        {
          "internalType": "address",
          "name": "_stakeholder",
          "type": "address"
        }
      ],
      "name": "removeStakeholder",
      "outputs": [],
      "stateMutability": "nonpayable",
      "type": "function"
    },
    {
      "inputs": [],
      "name": "renounceOwnership",
      "outputs": [],
      "stateMutability": "nonpayable",
      "type": "function"
    },
    {
      "inputs": [
        {
          "internalType": "address",
          "name": "_stakeholder",
          "type": "address"
        }
      ],
      "name": "rewardOf",
      "outputs": [
        {
          "internalType": "uint256",
          "name": "",
          "type": "uint256"
        }
      ],
      "stateMutability": "view",
      "type": "function"
    },
    {
      "inputs": [
        {
          "internalType": "address",
          "name": "_stakeholder",
          "type": "address"
        }
      ],
      "name": "stakeOf",
      "outputs": [
        {
          "internalType": "uint256",
          "name": "",
          "type": "uint256"
        }
      ],
      "stateMutability": "view",
      "type": "function"
    },
    {
      "inputs": [],
      "name": "symbol",
      "outputs": [
        {
          "internalType": "string",
          "name": "",
          "type": "string"
        }
      ],
      "stateMutability": "view",
      "type": "function"
    },
    {
      "inputs": [],
      "name": "totalRewards",
      "outputs": [
        {
          "internalType": "uint256",
          "name": "",
          "type": "uint256"
        }
      ],
      "stateMutability": "view",
      "type": "function"
    },
    {
      "inputs": [],
      "name": "totalStakes",
      "outputs": [
        {
          "internalType": "uint256",
          "name": "",
          "type": "uint256"
        }
      ],
      "stateMutability": "view",
      "type": "function"
    },
    {
      "inputs": [],
      "name": "totalSupply",
      "outputs": [
        {
          "internalType": "uint256",
          "name": "",
          "type": "uint256"
        }
      ],
      "stateMutability": "view",
      "type": "function"
    },
    {
      "inputs": [
        {
          "internalType": "address",
          "name": "recipient",
          "type": "address"
        },
        {
          "internalType": "uint256",
          "name": "amount",
          "type": "uint256"
        }
      ],
      "name": "transfer",
      "outputs": [
        {
          "internalType": "bool",
          "name": "",
          "type": "bool"
        }
      ],
      "stateMutability": "nonpayable",
      "type": "function"
    },
    {
      "inputs": [
        {
          "internalType": "address",
          "name": "sender",
          "type": "address"
        },
        {
          "internalType": "address",
          "name": "recipient",
          "type": "address"
        },
        {
          "internalType": "uint256",
          "name": "amount",
          "type": "uint256"
        }
      ],
      "name": "transferFrom",
      "outputs": [
        {
          "internalType": "bool",
          "name": "",
          "type": "bool"
        }
      ],
      "stateMutability": "nonpayable",
      "type": "function"
    },
    {
      "inputs": [
        {
          "internalType": "address",
          "name": "newOwner",
          "type": "address"
        }
      ],
      "name": "transferOwnership",
      "outputs": [],
      "stateMutability": "nonpayable",
      "type": "function"
    },
    {
      "inputs": [],
      "name": "withdrawReward",
      "outputs": [],
      "stateMutability": "nonpayable",
      "type": "function"
    }
  ],
  "bytecode": "0x60806040523480156200001157600080fd5b5060405162002f3f38038062002f3f833981810160405281019062000037919062000440565b6040518060400160405280600a81526020017f7a65726f5862726f636b000000000000000000000000000000000000000000008152506040518060400160405280600581526020017f42524f434b0000000000000000000000000000000000000000000000000000008152508160039080519060200190620000bb92919062000362565b508060049080519060200190620000d492919062000362565b505050620000f7620000eb6200011160201b60201c565b6200011960201b60201c565b620001098282620001df60201b60201c565b5050620006a0565b600033905090565b6000600560009054906101000a900473ffffffffffffffffffffffffffffffffffffffff16905081600560006101000a81548173ffffffffffffffffffffffffffffffffffffffff021916908373ffffffffffffffffffffffffffffffffffffffff1602179055508173ffffffffffffffffffffffffffffffffffffffff168173ffffffffffffffffffffffffffffffffffffffff167f8be0079c531659141344cd1fd0a4f28419497f9722a3daafe3b4186f6b6457e060405160405180910390a35050565b600073ffffffffffffffffffffffffffffffffffffffff168273ffffffffffffffffffffffffffffffffffffffff16141562000252576040517f08c379a00000000000000000000000000000000000000000000000000000000081526004016200024990620004bf565b60405180910390fd5b62000266600083836200035860201b60201c565b80600260008282546200027a91906200050f565b92505081905550806000808473ffffffffffffffffffffffffffffffffffffffff1673ffffffffffffffffffffffffffffffffffffffff1681526020019081526020016000206000828254620002d191906200050f565b925050819055508173ffffffffffffffffffffffffffffffffffffffff16600073ffffffffffffffffffffffffffffffffffffffff167fddf252ad1be2c89b69c2b068fc378daa952ba7f163c4a11628f55a4df523b3ef83604051620003389190620004e1565b60405180910390a362000354600083836200035d60201b60201c565b5050565b505050565b505050565b8280546200037090620005aa565b90600052602060002090601f016020900481019282620003945760008555620003e0565b82601f10620003af57805160ff1916838001178555620003e0565b82800160010185558215620003e0579182015b82811115620003df578251825591602001919060010190620003c2565b5b509050620003ef9190620003f3565b5090565b5b808211156200040e576000816000905550600101620003f4565b5090565b60008151905062000423816200066c565b92915050565b6000815190506200043a8162000686565b92915050565b600080604083850312156200045a57620004596200063e565b5b60006200046a8582860162000412565b92505060206200047d8582860162000429565b9150509250929050565b600062000496601f83620004fe565b9150620004a38262000643565b602082019050919050565b620004b981620005a0565b82525050565b60006020820190508181036000830152620004da8162000487565b9050919050565b6000602082019050620004f86000830184620004ae565b92915050565b600082825260208201905092915050565b60006200051c82620005a0565b91506200052983620005a0565b9250827fffffffffffffffffffffffffffffffffffffffffffffffffffffffffffffffff03821115620005615762000560620005e0565b5b828201905092915050565b6000620005798262000580565b9050919050565b600073ffffffffffffffffffffffffffffffffffffffff82169050919050565b6000819050919050565b60006002820490506001821680620005c357607f821691505b60208210811415620005da57620005d96200060f565b5b50919050565b7f4e487b7100000000000000000000000000000000000000000000000000000000600052601160045260246000fd5b7f4e487b7100000000000000000000000000000000000000000000000000000000600052602260045260246000fd5b600080fd5b7f45524332303a206d696e7420746f20746865207a65726f206164647265737300600082015250565b62000677816200056c565b81146200068357600080fd5b50565b6200069181620005a0565b81146200069d57600080fd5b50565b61288f80620006b06000396000f3fe608060405234801561001057600080fd5b506004361061018e5760003560e01c80638da5cb5b116100de578063bf9befb111610097578063dd62ed3e11610071578063dd62ed3e14610487578063e5c42fd1146104b7578063ef037b90146104d3578063f2fde38b146105045761018e565b8063bf9befb11461042f578063c885bc581461044d578063d82e3962146104575761018e565b80638da5cb5b1461035b578063939624ab1461037957806395d89b4114610395578063a457c2d7146103b3578063a9059cbb146103e3578063bcb0c2d7146104135761018e565b806323b872dd1161014b578063426233601161012557806342623360146102e75780636f4a2cd01461031757806370a0823114610321578063715018a6146103515761018e565b806323b872dd14610269578063313ce5671461029957806339509351146102b75761018e565b806306fdde0314610193578063095ea7b3146101b15780630e15561a146101e157806318160ddd146101ff5780631bf6ddae1461021d5780631d62ebd914610239575b600080fd5b61019b610520565b6040516101a89190612059565b60405180910390f35b6101cb60048036038101906101c69190611d74565b6105b2565b6040516101d89190612015565b60405180910390f35b6101e96105d0565b6040516101f691906121fb565b60405180910390f35b61020761068e565b60405161021491906121fb565b60405180910390f35b61023760048036038101906102329190611db4565b610698565b005b610253600480360381019061024e9190611cb4565b610785565b60405161026091906121fb565b60405180910390f35b610283600480360381019061027e9190611d21565b6107ce565b6040516102909190612015565b60405180910390f35b6102a16108c6565b6040516102ae9190612216565b60405180910390f35b6102d160048036038101906102cc9190611d74565b6108cf565b6040516102de9190612015565b60405180910390f35b61030160048036038101906102fc9190611cb4565b61097b565b60405161030e91906121fb565b60405180910390f35b61031f6109c4565b005b61033b60048036038101906103369190611cb4565b610b47565b60405161034891906121fb565b60405180910390f35b610359610b8f565b005b610363610c17565b6040516103709190611ffa565b60405180910390f35b610393600480360381019061038e9190611db4565b610c41565b005b61039d610d2e565b6040516103aa9190612059565b60405180910390f35b6103cd60048036038101906103c89190611d74565b610dc0565b6040516103da9190612015565b60405180910390f35b6103fd60048036038101906103f89190611d74565b610eab565b60405161040a9190612015565b60405180910390f35b61042d60048036038101906104289190611cb4565b610ec9565b005b610437610fd8565b60405161044491906121fb565b60405180910390f35b610455611096565b005b610471600480360381019061046c9190611cb4565b61112c565b60405161047e91906121fb565b60405180910390f35b6104a1600480360381019061049c9190611ce1565b611181565b6040516104ae91906121fb565b60405180910390f35b6104d160048036038101906104cc9190611cb4565b611208565b005b6104ed60048036038101906104e89190611cb4565b611283565b6040516104fb929190612030565b60405180910390f35b61051e60048036038101906105199190611cb4565b611337565b005b60606003805461052f90612390565b80601f016020809104026020016040519081016040528092919081815260200182805461055b90612390565b80156105a85780601f1061057d576101008083540402835291602001916105a8565b820191906000526020600020905b81548152906001019060200180831161058b57829003601f168201915b5050505050905090565b60006105c66105bf61142f565b8484611437565b6001905092915050565b6000806000905060005b6006805490508110156106865760086000600683815481106105ff576105fe61247e565b5b9060005260206000200160009054906101000a900473ffffffffffffffffffffffffffffffffffffffff1673ffffffffffffffffffffffffffffffffffffffff1673ffffffffffffffffffffffffffffffffffffffff1681526020019081526020016000205482610670919061224d565b915060018161067f919061224d565b90506105da565b508091505090565b6000600254905090565b6106a23382611602565b6000600760003373ffffffffffffffffffffffffffffffffffffffff1673ffffffffffffffffffffffffffffffffffffffff1681526020019081526020016000205414156106f4576106f333611208565b5b80600760003373ffffffffffffffffffffffffffffffffffffffff1673ffffffffffffffffffffffffffffffffffffffff1681526020019081526020016000205461073f919061224d565b600760003373ffffffffffffffffffffffffffffffffffffffff1673ffffffffffffffffffffffffffffffffffffffff1681526020019081526020016000208190555050565b6000600860008373ffffffffffffffffffffffffffffffffffffffff1673ffffffffffffffffffffffffffffffffffffffff168152602001908152602001600020549050919050565b60006107db8484846117d9565b6000600160008673ffffffffffffffffffffffffffffffffffffffff1673ffffffffffffffffffffffffffffffffffffffff168152602001908152602001600020600061082661142f565b73ffffffffffffffffffffffffffffffffffffffff1673ffffffffffffffffffffffffffffffffffffffff168152602001908152602001600020549050828110156108a6576040517f08c379a000000000000000000000000000000000000000000000000000000000815260040161089d9061211b565b60405180910390fd5b6108ba856108b261142f565b858403611437565b60019150509392505050565b60006012905090565b60006109716108dc61142f565b8484600160006108ea61142f565b73ffffffffffffffffffffffffffffffffffffffff1673ffffffffffffffffffffffffffffffffffffffff16815260200190815260200160002060008873ffffffffffffffffffffffffffffffffffffffff1673ffffffffffffffffffffffffffffffffffffffff1681526020019081526020016000205461096c919061224d565b611437565b6001905092915050565b6000600760008373ffffffffffffffffffffffffffffffffffffffff1673ffffffffffffffffffffffffffffffffffffffff168152602001908152602001600020549050919050565b6109cc61142f565b73ffffffffffffffffffffffffffffffffffffffff166109ea610c17565b73ffffffffffffffffffffffffffffffffffffffff1614610a40576040517f08c379a0000000000000000000000000000000000000000000000000000000008152600401610a379061213b565b60405180910390fd5b60005b600680549050811015610b4457600060068281548110610a6657610a6561247e565b5b9060005260206000200160009054906101000a900473ffffffffffffffffffffffffffffffffffffffff1690506000610a9e8261112c565b905080600860008473ffffffffffffffffffffffffffffffffffffffff1673ffffffffffffffffffffffffffffffffffffffff16815260200190815260200160002054610aeb919061224d565b600860008473ffffffffffffffffffffffffffffffffffffffff1673ffffffffffffffffffffffffffffffffffffffff168152602001908152602001600020819055505050600181610b3d919061224d565b9050610a43565b50565b60008060008373ffffffffffffffffffffffffffffffffffffffff1673ffffffffffffffffffffffffffffffffffffffff168152602001908152602001600020549050919050565b610b9761142f565b73ffffffffffffffffffffffffffffffffffffffff16610bb5610c17565b73ffffffffffffffffffffffffffffffffffffffff1614610c0b576040517f08c379a0000000000000000000000000000000000000000000000000000000008152600401610c029061213b565b60405180910390fd5b610c156000611a5a565b565b6000600560009054906101000a900473ffffffffffffffffffffffffffffffffffffffff16905090565b80600760003373ffffffffffffffffffffffffffffffffffffffff1673ffffffffffffffffffffffffffffffffffffffff16815260200190815260200160002054610c8c91906122d4565b600760003373ffffffffffffffffffffffffffffffffffffffff1673ffffffffffffffffffffffffffffffffffffffff168152602001908152602001600020819055506000600760003373ffffffffffffffffffffffffffffffffffffffff1673ffffffffffffffffffffffffffffffffffffffff168152602001908152602001600020541415610d2157610d2033610ec9565b5b610d2b3382611b20565b50565b606060048054610d3d90612390565b80601f0160208091040260200160405190810160405280929190818152602001828054610d6990612390565b8015610db65780601f10610d8b57610100808354040283529160200191610db6565b820191906000526020600020905b815481529060010190602001808311610d9957829003601f168201915b5050505050905090565b60008060016000610dcf61142f565b73ffffffffffffffffffffffffffffffffffffffff1673ffffffffffffffffffffffffffffffffffffffff16815260200190815260200160002060008573ffffffffffffffffffffffffffffffffffffffff1673ffffffffffffffffffffffffffffffffffffffff16815260200190815260200160002054905082811015610e8c576040517f08c379a0000000000000000000000000000000000000000000000000000000008152600401610e83906121bb565b60405180910390fd5b610ea0610e9761142f565b85858403611437565b600191505092915050565b6000610ebf610eb861142f565b84846117d9565b6001905092915050565b600080610ed583611283565b915091508115610fd35760066001600680549050610ef391906122d4565b81548110610f0457610f0361247e565b5b9060005260206000200160009054906101000a900473ffffffffffffffffffffffffffffffffffffffff1660068281548110610f4357610f4261247e565b5b9060005260206000200160006101000a81548173ffffffffffffffffffffffffffffffffffffffff021916908373ffffffffffffffffffffffffffffffffffffffff1602179055506006805480610f9d57610f9c61244f565b5b6001900381819060005260206000200160006101000a81549073ffffffffffffffffffffffffffffffffffffffff021916905590555b505050565b6000806000905060005b60068054905081101561108e5760076000600683815481106110075761100661247e565b5b9060005260206000200160009054906101000a900473ffffffffffffffffffffffffffffffffffffffff1673ffffffffffffffffffffffffffffffffffffffff1673ffffffffffffffffffffffffffffffffffffffff1681526020019081526020016000205482611078919061224d565b9150600181611087919061224d565b9050610fe2565b508091505090565b6000600860003373ffffffffffffffffffffffffffffffffffffffff1673ffffffffffffffffffffffffffffffffffffffff1681526020019081526020016000205490506000600860003373ffffffffffffffffffffffffffffffffffffffff1673ffffffffffffffffffffffffffffffffffffffff168152602001908152602001600020819055506111293382611b20565b50565b60006064600760008473ffffffffffffffffffffffffffffffffffffffff1673ffffffffffffffffffffffffffffffffffffffff1681526020019081526020016000205461117a91906122a3565b9050919050565b6000600160008473ffffffffffffffffffffffffffffffffffffffff1673ffffffffffffffffffffffffffffffffffffffff16815260200190815260200160002060008373ffffffffffffffffffffffffffffffffffffffff1673ffffffffffffffffffffffffffffffffffffffff16815260200190815260200160002054905092915050565b600061121382611283565b5090508061127f576006829080600181540180825580915050600190039060005260206000200160009091909190916101000a81548173ffffffffffffffffffffffffffffffffffffffff021916908373ffffffffffffffffffffffffffffffffffffffff1602179055505b5050565b60008060005b60068054905081101561132957600681815481106112aa576112a961247e565b5b9060005260206000200160009054906101000a900473ffffffffffffffffffffffffffffffffffffffff1673ffffffffffffffffffffffffffffffffffffffff168473ffffffffffffffffffffffffffffffffffffffff161415611315576001819250925050611332565b600181611322919061224d565b9050611289565b50600080915091505b915091565b61133f61142f565b73ffffffffffffffffffffffffffffffffffffffff1661135d610c17565b73ffffffffffffffffffffffffffffffffffffffff16146113b3576040517f08c379a00000000000000000000000000000000000000000000000000000000081526004016113aa9061213b565b60405180910390fd5b600073ffffffffffffffffffffffffffffffffffffffff168173ffffffffffffffffffffffffffffffffffffffff161415611423576040517f08c379a000000000000000000000000000000000000000000000000000000000815260040161141a906120bb565b60405180910390fd5b61142c81611a5a565b50565b600033905090565b600073ffffffffffffffffffffffffffffffffffffffff168373ffffffffffffffffffffffffffffffffffffffff1614156114a7576040517f08c379a000000000000000000000000000000000000000000000000000000000815260040161149e9061219b565b60405180910390fd5b600073ffffffffffffffffffffffffffffffffffffffff168273ffffffffffffffffffffffffffffffffffffffff161415611517576040517f08c379a000000000000000000000000000000000000000000000000000000000815260040161150e906120db565b60405180910390fd5b80600160008573ffffffffffffffffffffffffffffffffffffffff1673ffffffffffffffffffffffffffffffffffffffff16815260200190815260200160002060008473ffffffffffffffffffffffffffffffffffffffff1673ffffffffffffffffffffffffffffffffffffffff168152602001908152602001600020819055508173ffffffffffffffffffffffffffffffffffffffff168373ffffffffffffffffffffffffffffffffffffffff167f8c5be1e5ebec7d5bd14f71427d1e84f3dd0314c0f7b2291e5b200ac8c7c3b925836040516115f591906121fb565b60405180910390a3505050565b600073ffffffffffffffffffffffffffffffffffffffff168273ffffffffffffffffffffffffffffffffffffffff161415611672576040517f08c379a00000000000000000000000000000000000000000000000000000000081526004016116699061215b565b60405180910390fd5b61167e82600083611c80565b60008060008473ffffffffffffffffffffffffffffffffffffffff1673ffffffffffffffffffffffffffffffffffffffff16815260200190815260200160002054905081811015611704576040517f08c379a00000000000000000000000000000000000000000000000000000000081526004016116fb9061209b565b60405180910390fd5b8181036000808573ffffffffffffffffffffffffffffffffffffffff1673ffffffffffffffffffffffffffffffffffffffff16815260200190815260200160002081905550816002600082825461175b91906122d4565b92505081905550600073ffffffffffffffffffffffffffffffffffffffff168373ffffffffffffffffffffffffffffffffffffffff167fddf252ad1be2c89b69c2b068fc378daa952ba7f163c4a11628f55a4df523b3ef846040516117c091906121fb565b60405180910390a36117d483600084611c85565b505050565b600073ffffffffffffffffffffffffffffffffffffffff168373ffffffffffffffffffffffffffffffffffffffff161415611849576040517f08c379a00000000000000000000000000000000000000000000000000000000081526004016118409061217b565b60405180910390fd5b600073ffffffffffffffffffffffffffffffffffffffff168273ffffffffffffffffffffffffffffffffffffffff1614156118b9576040517f08c379a00000000000000000000000000000000000000000000000000000000081526004016118b09061207b565b60405180910390fd5b6118c4838383611c80565b60008060008573ffffffffffffffffffffffffffffffffffffffff1673ffffffffffffffffffffffffffffffffffffffff1681526020019081526020016000205490508181101561194a576040517f08c379a0000000000000000000000000000000000000000000000000000000008152600401611941906120fb565b60405180910390fd5b8181036000808673ffffffffffffffffffffffffffffffffffffffff1673ffffffffffffffffffffffffffffffffffffffff16815260200190815260200160002081905550816000808573ffffffffffffffffffffffffffffffffffffffff1673ffffffffffffffffffffffffffffffffffffffff16815260200190815260200160002060008282546119dd919061224d565b925050819055508273ffffffffffffffffffffffffffffffffffffffff168473ffffffffffffffffffffffffffffffffffffffff167fddf252ad1be2c89b69c2b068fc378daa952ba7f163c4a11628f55a4df523b3ef84604051611a4191906121fb565b60405180910390a3611a54848484611c85565b50505050565b6000600560009054906101000a900473ffffffffffffffffffffffffffffffffffffffff16905081600560006101000a81548173ffffffffffffffffffffffffffffffffffffffff021916908373ffffffffffffffffffffffffffffffffffffffff1602179055508173ffffffffffffffffffffffffffffffffffffffff168173ffffffffffffffffffffffffffffffffffffffff167f8be0079c531659141344cd1fd0a4f28419497f9722a3daafe3b4186f6b6457e060405160405180910390a35050565b600073ffffffffffffffffffffffffffffffffffffffff168273ffffffffffffffffffffffffffffffffffffffff161415611b90576040517f08c379a0000000000000000000000000000000000000000000000000000000008152600401611b87906121db565b60405180910390fd5b611b9c60008383611c80565b8060026000828254611bae919061224d565b92505081905550806000808473ffffffffffffffffffffffffffffffffffffffff1673ffffffffffffffffffffffffffffffffffffffff1681526020019081526020016000206000828254611c03919061224d565b925050819055508173ffffffffffffffffffffffffffffffffffffffff16600073ffffffffffffffffffffffffffffffffffffffff167fddf252ad1be2c89b69c2b068fc378daa952ba7f163c4a11628f55a4df523b3ef83604051611c6891906121fb565b60405180910390a3611c7c60008383611c85565b5050565b505050565b505050565b600081359050611c998161282b565b92915050565b600081359050611cae81612842565b92915050565b600060208284031215611cca57611cc96124ad565b5b6000611cd884828501611c8a565b91505092915050565b60008060408385031215611cf857611cf76124ad565b5b6000611d0685828601611c8a565b9250506020611d1785828601611c8a565b9150509250929050565b600080600060608486031215611d3a57611d396124ad565b5b6000611d4886828701611c8a565b9350506020611d5986828701611c8a565b9250506040611d6a86828701611c9f565b9150509250925092565b60008060408385031215611d8b57611d8a6124ad565b5b6000611d9985828601611c8a565b9250506020611daa85828601611c9f565b9150509250929050565b600060208284031215611dca57611dc96124ad565b5b6000611dd884828501611c9f565b91505092915050565b611dea81612308565b82525050565b611df98161231a565b82525050565b6000611e0a82612231565b611e14818561223c565b9350611e2481856020860161235d565b611e2d816124b2565b840191505092915050565b6000611e4560238361223c565b9150611e50826124c3565b604082019050919050565b6000611e6860228361223c565b9150611e7382612512565b604082019050919050565b6000611e8b60268361223c565b9150611e9682612561565b604082019050919050565b6000611eae60228361223c565b9150611eb9826125b0565b604082019050919050565b6000611ed160268361223c565b9150611edc826125ff565b604082019050919050565b6000611ef460288361223c565b9150611eff8261264e565b604082019050919050565b6000611f1760208361223c565b9150611f228261269d565b602082019050919050565b6000611f3a60218361223c565b9150611f45826126c6565b604082019050919050565b6000611f5d60258361223c565b9150611f6882612715565b604082019050919050565b6000611f8060248361223c565b9150611f8b82612764565b604082019050919050565b6000611fa360258361223c565b9150611fae826127b3565b604082019050919050565b6000611fc6601f8361223c565b9150611fd182612802565b602082019050919050565b611fe581612346565b82525050565b611ff481612350565b82525050565b600060208201905061200f6000830184611de1565b92915050565b600060208201905061202a6000830184611df0565b92915050565b60006040820190506120456000830185611df0565b6120526020830184611fdc565b9392505050565b600060208201905081810360008301526120738184611dff565b905092915050565b6000602082019050818103600083015261209481611e38565b9050919050565b600060208201905081810360008301526120b481611e5b565b9050919050565b600060208201905081810360008301526120d481611e7e565b9050919050565b600060208201905081810360008301526120f481611ea1565b9050919050565b6000602082019050818103600083015261211481611ec4565b9050919050565b6000602082019050818103600083015261213481611ee7565b9050919050565b6000602082019050818103600083015261215481611f0a565b9050919050565b6000602082019050818103600083015261217481611f2d565b9050919050565b6000602082019050818103600083015261219481611f50565b9050919050565b600060208201905081810360008301526121b481611f73565b9050919050565b600060208201905081810360008301526121d481611f96565b9050919050565b600060208201905081810360008301526121f481611fb9565b9050919050565b60006020820190506122106000830184611fdc565b92915050565b600060208201905061222b6000830184611feb565b92915050565b600081519050919050565b600082825260208201905092915050565b600061225882612346565b915061226383612346565b9250827fffffffffffffffffffffffffffffffffffffffffffffffffffffffffffffffff03821115612298576122976123c2565b5b828201905092915050565b60006122ae82612346565b91506122b983612346565b9250826122c9576122c86123f1565b5b828204905092915050565b60006122df82612346565b91506122ea83612346565b9250828210156122fd576122fc6123c2565b5b828203905092915050565b600061231382612326565b9050919050565b60008115159050919050565b600073ffffffffffffffffffffffffffffffffffffffff82169050919050565b6000819050919050565b600060ff82169050919050565b60005b8381101561237b578082015181840152602081019050612360565b8381111561238a576000848401525b50505050565b600060028204905060018216806123a857607f821691505b602082108114156123bc576123bb612420565b5b50919050565b7f4e487b7100000000000000000000000000000000000000000000000000000000600052601160045260246000fd5b7f4e487b7100000000000000000000000000000000000000000000000000000000600052601260045260246000fd5b7f4e487b7100000000000000000000000000000000000000000000000000000000600052602260045260246000fd5b7f4e487b7100000000000000000000000000000000000000000000000000000000600052603160045260246000fd5b7f4e487b7100000000000000000000000000000000000000000000000000000000600052603260045260246000fd5b600080fd5b6000601f19601f8301169050919050565b7f45524332303a207472616e7366657220746f20746865207a65726f206164647260008201527f6573730000000000000000000000000000000000000000000000000000000000602082015250565b7f45524332303a206275726e20616d6f756e7420657863656564732062616c616e60008201527f6365000000000000000000000000000000000000000000000000000000000000602082015250565b7f4f776e61626c653a206e6577206f776e657220697320746865207a65726f206160008201527f6464726573730000000000000000000000000000000000000000000000000000602082015250565b7f45524332303a20617070726f766520746f20746865207a65726f20616464726560008201527f7373000000000000000000000000000000000000000000000000000000000000602082015250565b7f45524332303a207472616e7366657220616d6f756e742065786365656473206260008201527f616c616e63650000000000000000000000000000000000000000000000000000602082015250565b7f45524332303a207472616e7366657220616d6f756e742065786365656473206160008201527f6c6c6f77616e6365000000000000000000000000000000000000000000000000602082015250565b7f4f776e61626c653a2063616c6c6572206973206e6f7420746865206f776e6572600082015250565b7f45524332303a206275726e2066726f6d20746865207a65726f2061646472657360008201527f7300000000000000000000000000000000000000000000000000000000000000602082015250565b7f45524332303a207472616e736665722066726f6d20746865207a65726f20616460008201527f6472657373000000000000000000000000000000000000000000000000000000602082015250565b7f45524332303a20617070726f76652066726f6d20746865207a65726f2061646460008201527f7265737300000000000000000000000000000000000000000000000000000000602082015250565b7f45524332303a2064656372656173656420616c6c6f77616e63652062656c6f7760008201527f207a65726f000000000000000000000000000000000000000000000000000000602082015250565b7f45524332303a206d696e7420746f20746865207a65726f206164647265737300600082015250565b61283481612308565b811461283f57600080fd5b50565b61284b81612346565b811461285657600080fd5b5056fea2646970667358221220f612ae736cb8b027f38da4ce71bcdabe863efa2ddff6acb24b1914fcc3cb4c2164736f6c63430008070033",
  "linkReferences": {},
  "deployedLinkReferences": {}
}